{
  "_format": "hh-sol-artifact-1",
  "contractName": "Record",
  "sourceName": "contracts/Record.sol",
  "abi": [
    {
      "inputs": [
        {
          "internalType": "string",
          "name": "_Pregnancies",
          "type": "string"
        },
        {
          "internalType": "string",
          "name": "_Glucose",
          "type": "string"
        },
        {
          "internalType": "string",
          "name": "_BloodPressure",
          "type": "string"
        },
        {
          "internalType": "string",
          "name": "_SkinThickness",
          "type": "string"
        },
        {
          "internalType": "string",
          "name": "_Insulin",
          "type": "string"
        },
        {
          "internalType": "string",
          "name": "_BMI",
          "type": "string"
        },
        {
          "internalType": "string",
          "name": "_DiabetesPedigreeFunction",
          "type": "string"
        }
      ],
      "name": "editDiabetes",
      "outputs": [],
      "stateMutability": "nonpayable",
      "type": "function"
    },
    {
      "inputs": [
        {
          "internalType": "uint256",
          "name": "_id",
          "type": "uint256"
        },
        {
          "internalType": "string",
          "name": "_name",
          "type": "string"
        },
        {
          "internalType": "string",
          "name": "_gender",
          "type": "string"
        },
        {
          "internalType": "string",
          "name": "_specialist",
          "type": "string"
        },
        {
          "internalType": "string",
          "name": "_hospitalName",
          "type": "string"
        },
        {
          "internalType": "string",
          "name": "_phoneNumber",
          "type": "string"
        },
        {
          "internalType": "string",
          "name": "_qualification",
          "type": "string"
        }
      ],
      "name": "editDoctor",
      "outputs": [],
      "stateMutability": "nonpayable",
      "type": "function"
    },
    {
      "inputs": [
        {
          "internalType": "string",
          "name": "_cp",
          "type": "string"
        },
        {
          "internalType": "string",
          "name": "_trestbps",
          "type": "string"
        },
        {
          "internalType": "string",
          "name": "_thalach",
          "type": "string"
        },
        {
          "internalType": "string",
          "name": "_chol",
          "type": "string"
        },
        {
          "internalType": "string",
          "name": "_fbs",
          "type": "string"
        },
        {
          "internalType": "string",
          "name": "_restecg",
          "type": "string"
        },
        {
          "internalType": "string",
          "name": "_exang",
          "type": "string"
        },
        {
          "internalType": "string",
          "name": "_Thalassemia",
          "type": "string"
        }
      ],
      "name": "editHeartDisease",
      "outputs": [],
      "stateMutability": "nonpayable",
      "type": "function"
    },
    {
      "inputs": [
        {
          "internalType": "uint256",
          "name": "_id",
          "type": "uint256"
        },
        {
          "internalType": "string",
          "name": "_name",
          "type": "string"
        },
        {
          "internalType": "string",
          "name": "_gender",
          "type": "string"
        },
        {
          "internalType": "string",
          "name": "_bloodGroup",
          "type": "string"
        },
        {
          "internalType": "string",
          "name": "_phoneNumber",
          "type": "string"
        },
        {
          "internalType": "string",
          "name": "_houseAddress",
          "type": "string"
        },
        {
          "internalType": "string",
          "name": "_issue",
          "type": "string"
        },
        {
          "internalType": "string",
          "name": "_medicine",
          "type": "string"
        },
        {
          "internalType": "string",
          "name": "_dob",
          "type": "string"
        }
      ],
      "name": "editPatient",
      "outputs": [],
      "stateMutability": "nonpayable",
      "type": "function"
    },
    {
      "inputs": [
        {
          "internalType": "address",
          "name": "_address",
          "type": "address"
        }
      ],
      "name": "getDiabetes",
      "outputs": [
        {
          "internalType": "string",
          "name": "",
          "type": "string"
        },
        {
          "internalType": "string",
          "name": "",
          "type": "string"
        },
        {
          "internalType": "string",
          "name": "",
          "type": "string"
        },
        {
          "internalType": "string",
          "name": "",
          "type": "string"
        },
        {
          "internalType": "string",
          "name": "",
          "type": "string"
        },
        {
          "internalType": "string",
          "name": "",
          "type": "string"
        },
        {
          "internalType": "string",
          "name": "",
          "type": "string"
        }
      ],
      "stateMutability": "view",
      "type": "function"
    },
    {
      "inputs": [
        {
          "internalType": "address",
          "name": "_address",
          "type": "address"
        }
      ],
      "name": "getDoctor",
      "outputs": [
        {
          "internalType": "uint256",
          "name": "",
          "type": "uint256"
        },
        {
          "internalType": "string",
          "name": "",
          "type": "string"
        },
        {
          "internalType": "string",
          "name": "",
          "type": "string"
        },
        {
          "internalType": "string",
          "name": "",
          "type": "string"
        },
        {
          "internalType": "string",
          "name": "",
          "type": "string"
        },
        {
          "internalType": "string",
          "name": "",
          "type": "string"
        },
        {
          "internalType": "string",
          "name": "",
          "type": "string"
        }
      ],
      "stateMutability": "view",
      "type": "function"
    },
    {
      "inputs": [],
      "name": "getDoctorAccounts",
      "outputs": [
        {
          "internalType": "address[]",
          "name": "",
          "type": "address[]"
        }
      ],
      "stateMutability": "view",
      "type": "function"
    },
    {
      "inputs": [],
      "name": "getDoctorCount",
      "outputs": [
        {
          "internalType": "uint256",
          "name": "",
          "type": "uint256"
        }
      ],
      "stateMutability": "view",
      "type": "function"
    },
    {
      "inputs": [],
      "name": "getDoctorName",
      "outputs": [
        {
          "internalType": "string[]",
          "name": "",
          "type": "string[]"
        }
      ],
      "stateMutability": "view",
      "type": "function"
    },
    {
      "inputs": [
        {
          "internalType": "address",
          "name": "_address",
          "type": "address"
        }
      ],
      "name": "getHeartdisease",
      "outputs": [
        {
          "internalType": "string",
          "name": "",
          "type": "string"
        },
        {
          "internalType": "string",
          "name": "",
          "type": "string"
        },
        {
          "internalType": "string",
          "name": "",
          "type": "string"
        },
        {
          "internalType": "string",
          "name": "",
          "type": "string"
        },
        {
          "internalType": "string",
          "name": "",
          "type": "string"
        },
        {
          "internalType": "string",
          "name": "",
          "type": "string"
        },
        {
          "internalType": "string",
          "name": "",
          "type": "string"
        }
      ],
      "stateMutability": "view",
      "type": "function"
    },
    {
      "inputs": [
        {
          "internalType": "address",
          "name": "_address",
          "type": "address"
        }
      ],
      "name": "getOthers",
      "outputs": [
        {
          "internalType": "uint256",
          "name": "",
          "type": "uint256"
        },
        {
          "internalType": "string",
          "name": "",
          "type": "string"
        },
        {
          "internalType": "string",
          "name": "",
          "type": "string"
        },
        {
          "internalType": "string",
          "name": "",
          "type": "string"
        },
        {
          "internalType": "string",
          "name": "",
          "type": "string"
        },
        {
          "internalType": "string",
          "name": "",
          "type": "string"
        },
        {
          "internalType": "string",
          "name": "",
          "type": "string"
        },
        {
          "internalType": "string",
          "name": "",
          "type": "string"
        },
        {
          "internalType": "string",
          "name": "",
          "type": "string"
        }
      ],
      "stateMutability": "view",
      "type": "function"
    },
    {
      "inputs": [
        {
          "internalType": "address",
          "name": "_address",
          "type": "address"
        }
      ],
      "name": "getPatient",
      "outputs": [
        {
          "internalType": "uint256",
          "name": "",
          "type": "uint256"
        },
        {
          "internalType": "string",
          "name": "",
          "type": "string"
        },
        {
          "internalType": "string",
          "name": "",
          "type": "string"
        },
        {
          "internalType": "string",
          "name": "",
          "type": "string"
        },
        {
          "internalType": "string",
          "name": "",
          "type": "string"
        },
        {
          "internalType": "string",
          "name": "",
          "type": "string"
        },
        {
          "internalType": "string",
          "name": "",
          "type": "string"
        },
        {
          "internalType": "string",
          "name": "",
          "type": "string"
        },
        {
          "internalType": "string",
          "name": "",
          "type": "string"
        }
      ],
      "stateMutability": "view",
      "type": "function"
    },
    {
      "inputs": [],
      "name": "getPatientAcc",
      "outputs": [
        {
          "internalType": "address[]",
          "name": "",
          "type": "address[]"
        }
      ],
      "stateMutability": "view",
      "type": "function"
    },
    {
      "inputs": [],
      "name": "getPatientCount",
      "outputs": [
        {
          "internalType": "uint256",
          "name": "",
          "type": "uint256"
        }
      ],
      "stateMutability": "view",
      "type": "function"
    },
    {
      "inputs": [],
      "name": "getPatientName",
      "outputs": [
        {
          "internalType": "string[]",
          "name": "",
          "type": "string[]"
        }
      ],
      "stateMutability": "view",
      "type": "function"
    },
    {
      "inputs": [
        {
          "internalType": "address",
          "name": "_address",
          "type": "address"
        }
      ],
      "name": "giveAccess",
      "outputs": [
        {
          "internalType": "bool",
          "name": "succus",
          "type": "bool"
        }
      ],
      "stateMutability": "nonpayable",
      "type": "function"
    },
    {
      "inputs": [
        {
          "internalType": "address",
          "name": "_address",
          "type": "address"
        }
      ],
      "name": "removeAccess",
      "outputs": [
        {
          "internalType": "bool",
          "name": "succus",
          "type": "bool"
        }
      ],
      "stateMutability": "nonpayable",
      "type": "function"
    },
    {
      "inputs": [
        {
          "internalType": "string",
          "name": "_Pregnancies",
          "type": "string"
        },
        {
          "internalType": "string",
          "name": "_Glucose",
          "type": "string"
        },
        {
          "internalType": "string",
          "name": "_BloodPressure",
          "type": "string"
        },
        {
          "internalType": "string",
          "name": "_SkinThickness",
          "type": "string"
        },
        {
          "internalType": "string",
          "name": "_Insulin",
          "type": "string"
        },
        {
          "internalType": "string",
          "name": "_BMI",
          "type": "string"
        },
        {
          "internalType": "string",
          "name": "_DiabetesPedigreeFunction",
          "type": "string"
        }
      ],
      "name": "setDiabetes",
      "outputs": [],
      "stateMutability": "nonpayable",
      "type": "function"
    },
    {
      "inputs": [
        {
          "internalType": "uint256",
          "name": "_id",
          "type": "uint256"
        },
        {
          "internalType": "string",
          "name": "_name",
          "type": "string"
        },
        {
          "internalType": "string",
          "name": "_gender",
          "type": "string"
        },
        {
          "internalType": "string",
          "name": "_specialist",
          "type": "string"
        },
        {
          "internalType": "string",
          "name": "_hospitalName",
          "type": "string"
        },
        {
          "internalType": "string",
          "name": "_phoneNumber",
          "type": "string"
        },
        {
          "internalType": "string",
          "name": "_qualification",
          "type": "string"
        }
      ],
      "name": "setDoctor",
      "outputs": [],
      "stateMutability": "nonpayable",
      "type": "function"
    },
    {
      "inputs": [
        {
          "internalType": "string",
          "name": "_cp",
          "type": "string"
        },
        {
          "internalType": "string",
          "name": "_trestbps",
          "type": "string"
        },
        {
          "internalType": "string",
          "name": "_thalach",
          "type": "string"
        },
        {
          "internalType": "string",
          "name": "_chol",
          "type": "string"
        },
        {
          "internalType": "string",
          "name": "_fbs",
          "type": "string"
        },
        {
          "internalType": "string",
          "name": "_restecg",
          "type": "string"
        },
        {
          "internalType": "string",
          "name": "_exang",
          "type": "string"
        },
        {
          "internalType": "string",
          "name": "_Thalassemia",
          "type": "string"
        }
      ],
      "name": "setHeartDisease",
      "outputs": [],
      "stateMutability": "nonpayable",
      "type": "function"
    },
    {
      "inputs": [
        {
          "internalType": "uint256",
          "name": "_id",
          "type": "uint256"
        },
        {
          "internalType": "string",
          "name": "_name",
          "type": "string"
        },
        {
          "internalType": "string",
          "name": "_gender",
          "type": "string"
        },
        {
          "internalType": "string",
          "name": "_bloodGroup",
          "type": "string"
        },
        {
          "internalType": "string",
          "name": "_phoneNumber",
          "type": "string"
        },
        {
          "internalType": "string",
          "name": "_houseAddress",
          "type": "string"
        },
        {
          "internalType": "string",
          "name": "_issue",
          "type": "string"
        },
        {
          "internalType": "string",
          "name": "_medicine",
          "type": "string"
        },
        {
          "internalType": "string",
          "name": "_dob",
          "type": "string"
        }
      ],
      "name": "setPatient",
      "outputs": [],
      "stateMutability": "nonpayable",
      "type": "function"
    }
  ],
  "bytecode": "0x608060405234801561001057600080fd5b50614317806100206000396000f3fe608060405234801561001057600080fd5b50600436106101375760003560e01c8063765d26f2116100b8578063a7d4b41a1161007c578063a7d4b41a1461034c578063b5368e2014610368578063c190665b146103a0578063cf12e870146103be578063d0e6fc39146103ee578063e4a56d881461040c57610137565b8063765d26f21461028e57806379111c1c146102c4578063870be7dd146102e25780638823da6c1461030057806397dcc1f31461033057610137565b80634d0bc984116100ff5780634d0bc9841461020257806355fa5bee1461021e57806357cbf9751461023a5780635e48468b14610256578063762184921461027257610137565b806315e0dd561461013c5780631ed473ec146101745780632796c8f0146101925780632f04e064146101b05780633608dda4146101e6575b600080fd5b61015660048036038101906101519190613308565b610442565b60405161016b999897969594939291906133de565b60405180910390f35b61017c6109ca565b6040516101899190613561565b60405180910390f35b61019a610a58565b6040516101a7919061368f565b60405180910390f35b6101ca60048036038101906101c59190613308565b610b31565b6040516101dd97969594939291906136b1565b60405180910390f35b61020060048036038101906101fb919061387f565b610efe565b005b61021c6004803603810190610217919061387f565b6110a9565b005b61023860048036038101906102339190613a15565b6112e9565b005b610254600480360381019061024f9190613ba7565b611476565b005b610270600480360381019061026b9190613a15565b611826565b005b61028c60048036038101906102879190613ba7565b611a48565b005b6102a860048036038101906102a39190613308565b611c5a565b6040516102bb9796959493929190613d51565b60405180910390f35b6102cc612145565b6040516102d99190613df1565b60405180910390f35b6102ea61214f565b6040516102f7919061368f565b60405180910390f35b61031a60048036038101906103159190613308565b612228565b6040516103279190613e27565b60405180910390f35b61034a60048036038101906103459190613e42565b6122c7565b005b61036660048036038101906103619190613e42565b61249e565b005b610382600480360381019061037d9190613308565b61277e565b604051610397999897969594939291906133de565b60405180910390f35b6103a8612c73565b6040516103b59190613df1565b60405180910390f35b6103d860048036038101906103d39190613308565b612c7d565b6040516103e59190613e27565b60405180910390f35b6103f6612d1d565b6040516104039190613561565b60405180910390f35b61042660048036038101906104219190613308565b612dab565b6040516104399796959493929190613d51565b60405180910390f35b6000606080606080606080606080600460008b73ffffffffffffffffffffffffffffffffffffffff1673ffffffffffffffffffffffffffffffffffffffff16815260200190815260200160002060003373ffffffffffffffffffffffffffffffffffffffff1673ffffffffffffffffffffffffffffffffffffffff16815260200190815260200160002060009054906101000a900460ff166104e357600080fd5b60008060008c73ffffffffffffffffffffffffffffffffffffffff1673ffffffffffffffffffffffffffffffffffffffff16815260200190815260200160002090508060000154816001018260020183600301846004018560050186600601876007018860080187805461055690613fbb565b80601f016020809104026020016040519081016040528092919081815260200182805461058290613fbb565b80156105cf5780601f106105a4576101008083540402835291602001916105cf565b820191906000526020600020905b8154815290600101906020018083116105b257829003601f168201915b505050505097508680546105e290613fbb565b80601f016020809104026020016040519081016040528092919081815260200182805461060e90613fbb565b801561065b5780601f106106305761010080835404028352916020019161065b565b820191906000526020600020905b81548152906001019060200180831161063e57829003601f168201915b5050505050965085805461066e90613fbb565b80601f016020809104026020016040519081016040528092919081815260200182805461069a90613fbb565b80156106e75780601f106106bc576101008083540402835291602001916106e7565b820191906000526020600020905b8154815290600101906020018083116106ca57829003601f168201915b505050505095508480546106fa90613fbb565b80601f016020809104026020016040519081016040528092919081815260200182805461072690613fbb565b80156107735780601f1061074857610100808354040283529160200191610773565b820191906000526020600020905b81548152906001019060200180831161075657829003601f168201915b5050505050945083805461078690613fbb565b80601f01602080910402602001604051908101604052809291908181526020018280546107b290613fbb565b80156107ff5780601f106107d4576101008083540402835291602001916107ff565b820191906000526020600020905b8154815290600101906020018083116107e257829003601f168201915b5050505050935082805461081290613fbb565b80601f016020809104026020016040519081016040528092919081815260200182805461083e90613fbb565b801561088b5780601f106108605761010080835404028352916020019161088b565b820191906000526020600020905b81548152906001019060200180831161086e57829003601f168201915b5050505050925081805461089e90613fbb565b80601f01602080910402602001604051908101604052809291908181526020018280546108ca90613fbb565b80156109175780601f106108ec57610100808354040283529160200191610917565b820191906000526020600020905b8154815290600101906020018083116108fa57829003601f168201915b5050505050915080805461092a90613fbb565b80601f016020809104026020016040519081016040528092919081815260200182805461095690613fbb565b80156109a35780601f10610978576101008083540402835291602001916109a3565b820191906000526020600020905b81548152906001019060200180831161098657829003601f168201915b50505050509050995099509950995099509950995099509950509193959799909294969850565b60606009805480602002602001604051908101604052809291908181526020018280548015610a4e57602002820191906000526020600020905b8160009054906101000a900473ffffffffffffffffffffffffffffffffffffffff1673ffffffffffffffffffffffffffffffffffffffff1681526020019060010190808311610a04575b5050505050905090565b6060600c805480602002602001604051908101604052809291908181526020016000905b82821015610b28578382906000526020600020018054610a9b90613fbb565b80601f0160208091040260200160405190810160405280929190818152602001828054610ac790613fbb565b8015610b145780601f10610ae957610100808354040283529160200191610b14565b820191906000526020600020905b815481529060010190602001808311610af757829003601f168201915b505050505081526020019060010190610a7c565b50505050905090565b60006060806060806060806000600160008a73ffffffffffffffffffffffffffffffffffffffff1673ffffffffffffffffffffffffffffffffffffffff16815260200190815260200160002090508060000154816001018260020183600301846005018560040186600601858054610ba890613fbb565b80601f0160208091040260200160405190810160405280929190818152602001828054610bd490613fbb565b8015610c215780601f10610bf657610100808354040283529160200191610c21565b820191906000526020600020905b815481529060010190602001808311610c0457829003601f168201915b50505050509550848054610c3490613fbb565b80601f0160208091040260200160405190810160405280929190818152602001828054610c6090613fbb565b8015610cad5780601f10610c8257610100808354040283529160200191610cad565b820191906000526020600020905b815481529060010190602001808311610c9057829003601f168201915b50505050509450838054610cc090613fbb565b80601f0160208091040260200160405190810160405280929190818152602001828054610cec90613fbb565b8015610d395780601f10610d0e57610100808354040283529160200191610d39565b820191906000526020600020905b815481529060010190602001808311610d1c57829003601f168201915b50505050509350828054610d4c90613fbb565b80601f0160208091040260200160405190810160405280929190818152602001828054610d7890613fbb565b8015610dc55780601f10610d9a57610100808354040283529160200191610dc5565b820191906000526020600020905b815481529060010190602001808311610da857829003601f168201915b50505050509250818054610dd890613fbb565b80601f0160208091040260200160405190810160405280929190818152602001828054610e0490613fbb565b8015610e515780601f10610e2657610100808354040283529160200191610e51565b820191906000526020600020905b815481529060010190602001808311610e3457829003601f168201915b50505050509150808054610e6490613fbb565b80601f0160208091040260200160405190810160405280929190818152602001828054610e9090613fbb565b8015610edd5780601f10610eb257610100808354040283529160200191610edd565b820191906000526020600020905b815481529060010190602001808311610ec057829003601f168201915b50505050509050975097509750975097509750975050919395979092949650565b6040518061014001604052803373ffffffffffffffffffffffffffffffffffffffff16815260200189815260200188815260200186815260200185815260200184815260200187815260200183815260200182815260200142815250600360003373ffffffffffffffffffffffffffffffffffffffff1673ffffffffffffffffffffffffffffffffffffffff16815260200190815260200160002060008201518160000160006101000a81548173ffffffffffffffffffffffffffffffffffffffff021916908373ffffffffffffffffffffffffffffffffffffffff1602179055506020820151816001019081610ff59190614198565b50604082015181600201908161100b9190614198565b5060608201518160030190816110219190614198565b5060808201518160040190816110379190614198565b5060a082015181600501908161104d9190614198565b5060c08201518160060190816110639190614198565b5060e08201518160070190816110799190614198565b506101008201518160080190816110909190614198565b5061012082015181600901559050505050505050505050565b6040518061014001604052803373ffffffffffffffffffffffffffffffffffffffff16815260200189815260200188815260200186815260200185815260200184815260200187815260200183815260200182815260200142815250600360003373ffffffffffffffffffffffffffffffffffffffff1673ffffffffffffffffffffffffffffffffffffffff16815260200190815260200160002060008201518160000160006101000a81548173ffffffffffffffffffffffffffffffffffffffff021916908373ffffffffffffffffffffffffffffffffffffffff16021790555060208201518160010190816111a09190614198565b5060408201518160020190816111b69190614198565b5060608201518160030190816111cc9190614198565b5060808201518160040190816111e29190614198565b5060a08201518160050190816111f89190614198565b5060c082015181600601908161120e9190614198565b5060e08201518160070190816112249190614198565b5061010082015181600801908161123b9190614198565b5061012082015181600901559050506001600460003373ffffffffffffffffffffffffffffffffffffffff1673ffffffffffffffffffffffffffffffffffffffff16815260200190815260200160002060003373ffffffffffffffffffffffffffffffffffffffff1673ffffffffffffffffffffffffffffffffffffffff16815260200190815260200160002060006101000a81548160ff0219169083151502179055505050505050505050565b6040518061012001604052803373ffffffffffffffffffffffffffffffffffffffff16815260200188815260200187815260200186815260200185815260200184815260200183815260200182815260200142815250600260003373ffffffffffffffffffffffffffffffffffffffff1673ffffffffffffffffffffffffffffffffffffffff16815260200190815260200160002060008201518160000160006101000a81548173ffffffffffffffffffffffffffffffffffffffff021916908373ffffffffffffffffffffffffffffffffffffffff16021790555060208201518160010190816113da9190614198565b5060408201518160020190816113f09190614198565b5060608201518160030190816114069190614198565b50608082015181600401908161141c9190614198565b5060a08201518160050190816114329190614198565b5060c08201518160060190816114489190614198565b5060e082015181600701908161145e9190614198565b50610100820151816008015590505050505050505050565b600560003373ffffffffffffffffffffffffffffffffffffffff1673ffffffffffffffffffffffffffffffffffffffff16815260200190815260200160002060009054906101000a900460ff16156114cd57600080fd5b6040518061016001604052808a81526020018981526020018881526020018781526020018681526020018581526020018481526020018381526020018281526020013373ffffffffffffffffffffffffffffffffffffffff168152602001428152506000803373ffffffffffffffffffffffffffffffffffffffff1673ffffffffffffffffffffffffffffffffffffffff16815260200190815260200160002060008201518160000155602082015181600101908161158c9190614198565b5060408201518160020190816115a29190614198565b5060608201518160030190816115b89190614198565b5060808201518160040190816115ce9190614198565b5060a08201518160050190816115e49190614198565b5060c08201518160060190816115fa9190614198565b5060e08201518160070190816116109190614198565b506101008201518160080190816116279190614198565b506101208201518160090160006101000a81548173ffffffffffffffffffffffffffffffffffffffff021916908373ffffffffffffffffffffffffffffffffffffffff16021790555061014082015181600a01559050506009339080600181540180825580915050600190039060005260206000200160009091909190916101000a81548173ffffffffffffffffffffffffffffffffffffffff021916908373ffffffffffffffffffffffffffffffffffffffff160217905550600b889080600181540180825580915050600190039060005260206000200160009091909190915090816117159190614198565b506007600081548092919061172990614299565b91905055506001600560003373ffffffffffffffffffffffffffffffffffffffff1673ffffffffffffffffffffffffffffffffffffffff16815260200190815260200160002060006101000a81548160ff0219169083151502179055506001600460003373ffffffffffffffffffffffffffffffffffffffff1673ffffffffffffffffffffffffffffffffffffffff16815260200190815260200160002060003373ffffffffffffffffffffffffffffffffffffffff1673ffffffffffffffffffffffffffffffffffffffff16815260200190815260200160002060006101000a81548160ff021916908315150217905550505050505050505050565b6040518061012001604052803373ffffffffffffffffffffffffffffffffffffffff16815260200188815260200187815260200186815260200185815260200184815260200183815260200182815260200142815250600260003373ffffffffffffffffffffffffffffffffffffffff1673ffffffffffffffffffffffffffffffffffffffff16815260200190815260200160002060008201518160000160006101000a81548173ffffffffffffffffffffffffffffffffffffffff021916908373ffffffffffffffffffffffffffffffffffffffff16021790555060208201518160010190816119179190614198565b50604082015181600201908161192d9190614198565b5060608201518160030190816119439190614198565b5060808201518160040190816119599190614198565b5060a082015181600501908161196f9190614198565b5060c08201518160060190816119859190614198565b5060e082015181600701908161199b9190614198565b5061010082015181600801559050506001600460003373ffffffffffffffffffffffffffffffffffffffff1673ffffffffffffffffffffffffffffffffffffffff16815260200190815260200160002060003373ffffffffffffffffffffffffffffffffffffffff1673ffffffffffffffffffffffffffffffffffffffff16815260200190815260200160002060006101000a81548160ff02191690831515021790555050505050505050565b600560003373ffffffffffffffffffffffffffffffffffffffff1673ffffffffffffffffffffffffffffffffffffffff16815260200190815260200160002060009054906101000a900460ff16611a9e57600080fd5b6040518061016001604052808a81526020018981526020018881526020018781526020018681526020018581526020018481526020018381526020018281526020013373ffffffffffffffffffffffffffffffffffffffff168152602001428152506000803373ffffffffffffffffffffffffffffffffffffffff1673ffffffffffffffffffffffffffffffffffffffff168152602001908152602001600020600082015181600001556020820151816001019081611b5d9190614198565b506040820151816002019081611b739190614198565b506060820151816003019081611b899190614198565b506080820151816004019081611b9f9190614198565b5060a0820151816005019081611bb59190614198565b5060c0820151816006019081611bcb9190614198565b5060e0820151816007019081611be19190614198565b50610100820151816008019081611bf89190614198565b506101208201518160090160006101000a81548173ffffffffffffffffffffffffffffffffffffffff021916908373ffffffffffffffffffffffffffffffffffffffff16021790555061014082015181600a0155905050505050505050505050565b6060806060806060806060600460008973ffffffffffffffffffffffffffffffffffffffff1673ffffffffffffffffffffffffffffffffffffffff16815260200190815260200160002060003373ffffffffffffffffffffffffffffffffffffffff1673ffffffffffffffffffffffffffffffffffffffff16815260200190815260200160002060009054906101000a900460ff16611cf857600080fd5b6000600360008a73ffffffffffffffffffffffffffffffffffffffff1673ffffffffffffffffffffffffffffffffffffffff168152602001908152602001600020905080600101816002018260030183600401846005018560070186600801868054611d6390613fbb565b80601f0160208091040260200160405190810160405280929190818152602001828054611d8f90613fbb565b8015611ddc5780601f10611db157610100808354040283529160200191611ddc565b820191906000526020600020905b815481529060010190602001808311611dbf57829003601f168201915b50505050509650858054611def90613fbb565b80601f0160208091040260200160405190810160405280929190818152602001828054611e1b90613fbb565b8015611e685780601f10611e3d57610100808354040283529160200191611e68565b820191906000526020600020905b815481529060010190602001808311611e4b57829003601f168201915b50505050509550848054611e7b90613fbb565b80601f0160208091040260200160405190810160405280929190818152602001828054611ea790613fbb565b8015611ef45780601f10611ec957610100808354040283529160200191611ef4565b820191906000526020600020905b815481529060010190602001808311611ed757829003601f168201915b50505050509450838054611f0790613fbb565b80601f0160208091040260200160405190810160405280929190818152602001828054611f3390613fbb565b8015611f805780601f10611f5557610100808354040283529160200191611f80565b820191906000526020600020905b815481529060010190602001808311611f6357829003601f168201915b50505050509350828054611f9390613fbb565b80601f0160208091040260200160405190810160405280929190818152602001828054611fbf90613fbb565b801561200c5780601f10611fe15761010080835404028352916020019161200c565b820191906000526020600020905b815481529060010190602001808311611fef57829003601f168201915b5050505050925081805461201f90613fbb565b80601f016020809104026020016040519081016040528092919081815260200182805461204b90613fbb565b80156120985780601f1061206d57610100808354040283529160200191612098565b820191906000526020600020905b81548152906001019060200180831161207b57829003601f168201915b505050505091508080546120ab90613fbb565b80601f01602080910402602001604051908101604052809291908181526020018280546120d790613fbb565b80156121245780601f106120f957610100808354040283529160200191612124565b820191906000526020600020905b81548152906001019060200180831161210757829003601f168201915b50505050509050975097509750975097509750975050919395979092949650565b6000600854905090565b6060600b805480602002602001604051908101604052809291908181526020016000905b8282101561221f57838290600052602060002001805461219290613fbb565b80601f01602080910402602001604051908101604052809291908181526020018280546121be90613fbb565b801561220b5780601f106121e05761010080835404028352916020019161220b565b820191906000526020600020905b8154815290600101906020018083116121ee57829003601f168201915b505050505081526020019060010190612173565b50505050905090565b600080600460003373ffffffffffffffffffffffffffffffffffffffff1673ffffffffffffffffffffffffffffffffffffffff16815260200190815260200160002060008473ffffffffffffffffffffffffffffffffffffffff1673ffffffffffffffffffffffffffffffffffffffff16815260200190815260200160002060006101000a81548160ff02191690831515021790555060019050919050565b600660003373ffffffffffffffffffffffffffffffffffffffff1673ffffffffffffffffffffffffffffffffffffffff16815260200190815260200160002060009054906101000a900460ff1661231d57600080fd5b6040518061012001604052808881526020018781526020018681526020018581526020018481526020018381526020018281526020013373ffffffffffffffffffffffffffffffffffffffff16815260200142815250600160003373ffffffffffffffffffffffffffffffffffffffff1673ffffffffffffffffffffffffffffffffffffffff1681526020019081526020016000206000820151816000015560208201518160010190816123d19190614198565b5060408201518160020190816123e79190614198565b5060608201518160030190816123fd9190614198565b5060808201518160040190816124139190614198565b5060a08201518160050190816124299190614198565b5060c082015181600601908161243f9190614198565b5060e08201518160070160006101000a81548173ffffffffffffffffffffffffffffffffffffffff021916908373ffffffffffffffffffffffffffffffffffffffff160217905550610100820151816008015590505050505050505050565b600660003373ffffffffffffffffffffffffffffffffffffffff1673ffffffffffffffffffffffffffffffffffffffff16815260200190815260200160002060009054906101000a900460ff16156124f557600080fd5b6040518061012001604052808881526020018781526020018681526020018581526020018481526020018381526020018281526020013373ffffffffffffffffffffffffffffffffffffffff16815260200142815250600160003373ffffffffffffffffffffffffffffffffffffffff1673ffffffffffffffffffffffffffffffffffffffff1681526020019081526020016000206000820151816000015560208201518160010190816125a99190614198565b5060408201518160020190816125bf9190614198565b5060608201518160030190816125d59190614198565b5060808201518160040190816125eb9190614198565b5060a08201518160050190816126019190614198565b5060c08201518160060190816126179190614198565b5060e08201518160070160006101000a81548173ffffffffffffffffffffffffffffffffffffffff021916908373ffffffffffffffffffffffffffffffffffffffff1602179055506101008201518160080155905050600a339080600181540180825580915050600190039060005260206000200160009091909190916101000a81548173ffffffffffffffffffffffffffffffffffffffff021916908373ffffffffffffffffffffffffffffffffffffffff160217905550600c869080600181540180825580915050600190039060005260206000200160009091909190915090816127049190614198565b506008600081548092919061271890614299565b91905055506001600660003373ffffffffffffffffffffffffffffffffffffffff1673ffffffffffffffffffffffffffffffffffffffff16815260200190815260200160002060006101000a81548160ff02191690831515021790555050505050505050565b600060608060608060608060608060008060008c73ffffffffffffffffffffffffffffffffffffffff1673ffffffffffffffffffffffffffffffffffffffff1681526020019081526020016000209050806000015481600101826002018360030184600401856005018660060187600701886008018780546127ff90613fbb565b80601f016020809104026020016040519081016040528092919081815260200182805461282b90613fbb565b80156128785780601f1061284d57610100808354040283529160200191612878565b820191906000526020600020905b81548152906001019060200180831161285b57829003601f168201915b5050505050975086805461288b90613fbb565b80601f01602080910402602001604051908101604052809291908181526020018280546128b790613fbb565b80156129045780601f106128d957610100808354040283529160200191612904565b820191906000526020600020905b8154815290600101906020018083116128e757829003601f168201915b5050505050965085805461291790613fbb565b80601f016020809104026020016040519081016040528092919081815260200182805461294390613fbb565b80156129905780601f1061296557610100808354040283529160200191612990565b820191906000526020600020905b81548152906001019060200180831161297357829003601f168201915b505050505095508480546129a390613fbb565b80601f01602080910402602001604051908101604052809291908181526020018280546129cf90613fbb565b8015612a1c5780601f106129f157610100808354040283529160200191612a1c565b820191906000526020600020905b8154815290600101906020018083116129ff57829003601f168201915b50505050509450838054612a2f90613fbb565b80601f0160208091040260200160405190810160405280929190818152602001828054612a5b90613fbb565b8015612aa85780601f10612a7d57610100808354040283529160200191612aa8565b820191906000526020600020905b815481529060010190602001808311612a8b57829003601f168201915b50505050509350828054612abb90613fbb565b80601f0160208091040260200160405190810160405280929190818152602001828054612ae790613fbb565b8015612b345780601f10612b0957610100808354040283529160200191612b34565b820191906000526020600020905b815481529060010190602001808311612b1757829003601f168201915b50505050509250818054612b4790613fbb565b80601f0160208091040260200160405190810160405280929190818152602001828054612b7390613fbb565b8015612bc05780601f10612b9557610100808354040283529160200191612bc0565b820191906000526020600020905b815481529060010190602001808311612ba357829003601f168201915b50505050509150808054612bd390613fbb565b80601f0160208091040260200160405190810160405280929190818152602001828054612bff90613fbb565b8015612c4c5780601f10612c2157610100808354040283529160200191612c4c565b820191906000526020600020905b815481529060010190602001808311612c2f57829003601f168201915b50505050509050995099509950995099509950995099509950509193959799909294969850565b6000600754905090565b60006001600460003373ffffffffffffffffffffffffffffffffffffffff1673ffffffffffffffffffffffffffffffffffffffff16815260200190815260200160002060008473ffffffffffffffffffffffffffffffffffffffff1673ffffffffffffffffffffffffffffffffffffffff16815260200190815260200160002060006101000a81548160ff02191690831515021790555060019050919050565b6060600a805480602002602001604051908101604052809291908181526020018280548015612da157602002820191906000526020600020905b8160009054906101000a900473ffffffffffffffffffffffffffffffffffffffff1673ffffffffffffffffffffffffffffffffffffffff1681526020019060010190808311612d57575b5050505050905090565b6060806060806060806060600460008973ffffffffffffffffffffffffffffffffffffffff1673ffffffffffffffffffffffffffffffffffffffff16815260200190815260200160002060003373ffffffffffffffffffffffffffffffffffffffff1673ffffffffffffffffffffffffffffffffffffffff16815260200190815260200160002060009054906101000a900460ff16612e4957600080fd5b6000600260008a73ffffffffffffffffffffffffffffffffffffffff1673ffffffffffffffffffffffffffffffffffffffff168152602001908152602001600020905080600101816002018260040183600301846005018560060186600701868054612eb490613fbb565b80601f0160208091040260200160405190810160405280929190818152602001828054612ee090613fbb565b8015612f2d5780601f10612f0257610100808354040283529160200191612f2d565b820191906000526020600020905b815481529060010190602001808311612f1057829003601f168201915b50505050509650858054612f4090613fbb565b80601f0160208091040260200160405190810160405280929190818152602001828054612f6c90613fbb565b8015612fb95780601f10612f8e57610100808354040283529160200191612fb9565b820191906000526020600020905b815481529060010190602001808311612f9c57829003601f168201915b50505050509550848054612fcc90613fbb565b80601f0160208091040260200160405190810160405280929190818152602001828054612ff890613fbb565b80156130455780601f1061301a57610100808354040283529160200191613045565b820191906000526020600020905b81548152906001019060200180831161302857829003601f168201915b5050505050945083805461305890613fbb565b80601f016020809104026020016040519081016040528092919081815260200182805461308490613fbb565b80156130d15780601f106130a6576101008083540402835291602001916130d1565b820191906000526020600020905b8154815290600101906020018083116130b457829003601f168201915b505050505093508280546130e490613fbb565b80601f016020809104026020016040519081016040528092919081815260200182805461311090613fbb565b801561315d5780601f106131325761010080835404028352916020019161315d565b820191906000526020600020905b81548152906001019060200180831161314057829003601f168201915b5050505050925081805461317090613fbb565b80601f016020809104026020016040519081016040528092919081815260200182805461319c90613fbb565b80156131e95780601f106131be576101008083540402835291602001916131e9565b820191906000526020600020905b8154815290600101906020018083116131cc57829003601f168201915b505050505091508080546131fc90613fbb565b80601f016020809104026020016040519081016040528092919081815260200182805461322890613fbb565b80156132755780601f1061324a57610100808354040283529160200191613275565b820191906000526020600020905b81548152906001019060200180831161325857829003601f168201915b50505050509050975097509750975097509750975050919395979092949650565b6000604051905090565b600080fd5b600080fd5b600073ffffffffffffffffffffffffffffffffffffffff82169050919050565b60006132d5826132aa565b9050919050565b6132e5816132ca565b81146132f057600080fd5b50565b600081359050613302816132dc565b92915050565b60006020828403121561331e5761331d6132a0565b5b600061332c848285016132f3565b91505092915050565b6000819050919050565b61334881613335565b82525050565b600081519050919050565b600082825260208201905092915050565b60005b8381101561338857808201518184015260208101905061336d565b60008484015250505050565b6000601f19601f8301169050919050565b60006133b08261334e565b6133ba8185613359565b93506133ca81856020860161336a565b6133d381613394565b840191505092915050565b6000610120820190506133f4600083018c61333f565b8181036020830152613406818b6133a5565b9050818103604083015261341a818a6133a5565b9050818103606083015261342e81896133a5565b9050818103608083015261344281886133a5565b905081810360a083015261345681876133a5565b905081810360c083015261346a81866133a5565b905081810360e083015261347e81856133a5565b905081810361010083015261349381846133a5565b90509a9950505050505050505050565b600081519050919050565b600082825260208201905092915050565b6000819050602082019050919050565b6134d8816132ca565b82525050565b60006134ea83836134cf565b60208301905092915050565b6000602082019050919050565b600061350e826134a3565b61351881856134ae565b9350613523836134bf565b8060005b8381101561355457815161353b88826134de565b9750613546836134f6565b925050600181019050613527565b5085935050505092915050565b6000602082019050818103600083015261357b8184613503565b905092915050565b600081519050919050565b600082825260208201905092915050565b6000819050602082019050919050565b600082825260208201905092915050565b60006135cb8261334e565b6135d581856135af565b93506135e581856020860161336a565b6135ee81613394565b840191505092915050565b600061360583836135c0565b905092915050565b6000602082019050919050565b600061362582613583565b61362f818561358e565b9350836020820285016136418561359f565b8060005b8581101561367d578484038952815161365e85826135f9565b94506136698361360d565b925060208a01995050600181019050613645565b50829750879550505050505092915050565b600060208201905081810360008301526136a9818461361a565b905092915050565b600060e0820190506136c6600083018a61333f565b81810360208301526136d881896133a5565b905081810360408301526136ec81886133a5565b9050818103606083015261370081876133a5565b9050818103608083015261371481866133a5565b905081810360a083015261372881856133a5565b905081810360c083015261373c81846133a5565b905098975050505050505050565b600080fd5b600080fd5b7f4e487b7100000000000000000000000000000000000000000000000000000000600052604160045260246000fd5b61378c82613394565b810181811067ffffffffffffffff821117156137ab576137aa613754565b5b80604052505050565b60006137be613296565b90506137ca8282613783565b919050565b600067ffffffffffffffff8211156137ea576137e9613754565b5b6137f382613394565b9050602081019050919050565b82818337600083830152505050565b600061382261381d846137cf565b6137b4565b90508281526020810184848401111561383e5761383d61374f565b5b613849848285613800565b509392505050565b600082601f8301126138665761386561374a565b5b813561387684826020860161380f565b91505092915050565b600080600080600080600080610100898b0312156138a05761389f6132a0565b5b600089013567ffffffffffffffff8111156138be576138bd6132a5565b5b6138ca8b828c01613851565b985050602089013567ffffffffffffffff8111156138eb576138ea6132a5565b5b6138f78b828c01613851565b975050604089013567ffffffffffffffff811115613918576139176132a5565b5b6139248b828c01613851565b965050606089013567ffffffffffffffff811115613945576139446132a5565b5b6139518b828c01613851565b955050608089013567ffffffffffffffff811115613972576139716132a5565b5b61397e8b828c01613851565b94505060a089013567ffffffffffffffff81111561399f5761399e6132a5565b5b6139ab8b828c01613851565b93505060c089013567ffffffffffffffff8111156139cc576139cb6132a5565b5b6139d88b828c01613851565b92505060e089013567ffffffffffffffff8111156139f9576139f86132a5565b5b613a058b828c01613851565b9150509295985092959890939650565b600080600080600080600060e0888a031215613a3457613a336132a0565b5b600088013567ffffffffffffffff811115613a5257613a516132a5565b5b613a5e8a828b01613851565b975050602088013567ffffffffffffffff811115613a7f57613a7e6132a5565b5b613a8b8a828b01613851565b965050604088013567ffffffffffffffff811115613aac57613aab6132a5565b5b613ab88a828b01613851565b955050606088013567ffffffffffffffff811115613ad957613ad86132a5565b5b613ae58a828b01613851565b945050608088013567ffffffffffffffff811115613b0657613b056132a5565b5b613b128a828b01613851565b93505060a088013567ffffffffffffffff811115613b3357613b326132a5565b5b613b3f8a828b01613851565b92505060c088013567ffffffffffffffff811115613b6057613b5f6132a5565b5b613b6c8a828b01613851565b91505092959891949750929550565b613b8481613335565b8114613b8f57600080fd5b50565b600081359050613ba181613b7b565b92915050565b60008060008060008060008060006101208a8c031215613bca57613bc96132a0565b5b6000613bd88c828d01613b92565b99505060208a013567ffffffffffffffff811115613bf957613bf86132a5565b5b613c058c828d01613851565b98505060408a013567ffffffffffffffff811115613c2657613c256132a5565b5b613c328c828d01613851565b97505060608a013567ffffffffffffffff811115613c5357613c526132a5565b5b613c5f8c828d01613851565b96505060808a013567ffffffffffffffff811115613c8057613c7f6132a5565b5b613c8c8c828d01613851565b95505060a08a013567ffffffffffffffff811115613cad57613cac6132a5565b5b613cb98c828d01613851565b94505060c08a013567ffffffffffffffff811115613cda57613cd96132a5565b5b613ce68c828d01613851565b93505060e08a013567ffffffffffffffff811115613d0757613d066132a5565b5b613d138c828d01613851565b9250506101008a013567ffffffffffffffff811115613d3557613d346132a5565b5b613d418c828d01613851565b9150509295985092959850929598565b600060e0820190508181036000830152613d6b818a6133a5565b90508181036020830152613d7f81896133a5565b90508181036040830152613d9381886133a5565b90508181036060830152613da781876133a5565b90508181036080830152613dbb81866133a5565b905081810360a0830152613dcf81856133a5565b905081810360c0830152613de381846133a5565b905098975050505050505050565b6000602082019050613e06600083018461333f565b92915050565b60008115159050919050565b613e2181613e0c565b82525050565b6000602082019050613e3c6000830184613e18565b92915050565b600080600080600080600060e0888a031215613e6157613e606132a0565b5b6000613e6f8a828b01613b92565b975050602088013567ffffffffffffffff811115613e9057613e8f6132a5565b5b613e9c8a828b01613851565b965050604088013567ffffffffffffffff811115613ebd57613ebc6132a5565b5b613ec98a828b01613851565b955050606088013567ffffffffffffffff811115613eea57613ee96132a5565b5b613ef68a828b01613851565b945050608088013567ffffffffffffffff811115613f1757613f166132a5565b5b613f238a828b01613851565b93505060a088013567ffffffffffffffff811115613f4457613f436132a5565b5b613f508a828b01613851565b92505060c088013567ffffffffffffffff811115613f7157613f706132a5565b5b613f7d8a828b01613851565b91505092959891949750929550565b7f4e487b7100000000000000000000000000000000000000000000000000000000600052602260045260246000fd5b60006002820490506001821680613fd357607f821691505b602082108103613fe657613fe5613f8c565b5b50919050565b60008190508160005260206000209050919050565b60006020601f8301049050919050565b600082821b905092915050565b60006008830261404e7fffffffffffffffffffffffffffffffffffffffffffffffffffffffffffffffff82614011565b6140588683614011565b95508019841693508086168417925050509392505050565b6000819050919050565b600061409561409061408b84613335565b614070565b613335565b9050919050565b6000819050919050565b6140af8361407a565b6140c36140bb8261409c565b84845461401e565b825550505050565b600090565b6140d86140cb565b6140e38184846140a6565b505050565b5b81811015614107576140fc6000826140d0565b6001810190506140e9565b5050565b601f82111561414c5761411d81613fec565b61412684614001565b81016020851015614135578190505b61414961414185614001565b8301826140e8565b50505b505050565b600082821c905092915050565b600061416f60001984600802614151565b1980831691505092915050565b6000614188838361415e565b9150826002028217905092915050565b6141a18261334e565b67ffffffffffffffff8111156141ba576141b9613754565b5b6141c48254613fbb565b6141cf82828561410b565b600060209050601f83116001811461420257600084156141f0578287015190505b6141fa858261417c565b865550614262565b601f19841661421086613fec565b60005b8281101561423857848901518255600182019150602085019450602081019050614213565b868310156142555784890151614251601f89168261415e565b8355505b6001600288020188555050505b505050505050565b7f4e487b7100000000000000000000000000000000000000000000000000000000600052601160045260246000fd5b60006142a482613335565b91507fffffffffffffffffffffffffffffffffffffffffffffffffffffffffffffffff82036142d6576142d561426a565b5b60018201905091905056fea2646970667358221220cb97e60cc34364647106f08a5e131d943bb44166942bf981ee9e36d0273872c064736f6c63430008110033",
  "linkReferences": {},
  "deployedLinkReferences": {}
}